{
  "contractName": "AllTransactions",
  "abi": [
    {
      "inputs": [],
      "payable": false,
      "stateMutability": "nonpayable",
      "type": "constructor"
    },
    {
      "anonymous": false,
      "inputs": [
        {
          "indexed": false,
          "internalType": "uint256",
          "name": "userCount",
          "type": "uint256"
        },
        {
          "indexed": false,
          "internalType": "string",
          "name": "_name",
          "type": "string"
        },
        {
          "indexed": false,
          "internalType": "string",
          "name": "_email",
          "type": "string"
        },
        {
          "indexed": false,
          "internalType": "uint256",
          "name": "_phone",
          "type": "uint256"
        },
        {
          "indexed": false,
          "internalType": "string",
          "name": "_additionalDetails",
          "type": "string"
        }
      ],
      "name": "userCreated",
      "type": "event"
    },
    {
      "constant": true,
      "inputs": [],
      "name": "asSt",
      "outputs": [
        {
          "internalType": "string",
          "name": "",
          "type": "string"
        }
      ],
      "payable": false,
      "stateMutability": "view",
      "type": "function"
    },
    {
      "constant": true,
      "inputs": [
        {
          "internalType": "bytes32",
          "name": "",
          "type": "bytes32"
        }
      ],
      "name": "keyHashtoUserHash",
      "outputs": [
        {
          "internalType": "bytes32",
          "name": "",
          "type": "bytes32"
        }
      ],
      "payable": false,
      "stateMutability": "view",
      "type": "function"
    },
    {
      "constant": true,
      "inputs": [],
      "name": "lastLog",
      "outputs": [
        {
          "internalType": "bytes32",
          "name": "",
          "type": "bytes32"
        }
      ],
      "payable": false,
      "stateMutability": "view",
      "type": "function"
    },
    {
      "constant": true,
      "inputs": [],
      "name": "latLOG",
      "outputs": [
        {
          "internalType": "bool",
          "name": "",
          "type": "bool"
        }
      ],
      "payable": false,
      "stateMutability": "view",
      "type": "function"
    },
    {
      "constant": true,
      "inputs": [],
      "name": "universalCounter",
      "outputs": [
        {
          "internalType": "uint256",
          "name": "",
          "type": "uint256"
        }
      ],
      "payable": false,
      "stateMutability": "view",
      "type": "function"
    },
    {
      "constant": true,
      "inputs": [],
      "name": "userCount",
      "outputs": [
        {
          "internalType": "uint256",
          "name": "",
          "type": "uint256"
        }
      ],
      "payable": false,
      "stateMutability": "view",
      "type": "function"
    },
    {
      "constant": true,
      "inputs": [
        {
          "internalType": "bytes32",
          "name": "",
          "type": "bytes32"
        }
      ],
      "name": "userList",
      "outputs": [
        {
          "internalType": "uint256",
          "name": "id",
          "type": "uint256"
        },
        {
          "internalType": "string",
          "name": "name",
          "type": "string"
        },
        {
          "internalType": "string",
          "name": "email",
          "type": "string"
        },
        {
          "internalType": "uint256",
          "name": "phone",
          "type": "uint256"
        },
        {
          "internalType": "string",
          "name": "additionalDetails",
          "type": "string"
        }
      ],
      "payable": false,
      "stateMutability": "view",
      "type": "function"
    },
    {
      "constant": false,
      "inputs": [
        {
          "internalType": "string",
          "name": "_data",
          "type": "string"
        }
      ],
      "name": "asS",
      "outputs": [],
      "payable": false,
      "stateMutability": "nonpayable",
      "type": "function"
    },
    {
      "constant": true,
      "inputs": [
        {
          "internalType": "string",
          "name": "_pvtKey",
          "type": "string"
        },
        {
          "internalType": "string",
          "name": "_address",
          "type": "string"
        }
      ],
      "name": "setLastLog",
      "outputs": [
        {
          "internalType": "bytes32",
          "name": "",
          "type": "bytes32"
        }
      ],
      "payable": false,
      "stateMutability": "pure",
      "type": "function"
    },
    {
      "constant": false,
      "inputs": [
        {
          "internalType": "string",
          "name": "_address",
          "type": "string"
        },
        {
          "internalType": "string",
          "name": "_pvtKey",
          "type": "string"
        },
        {
          "internalType": "string",
          "name": "_name",
          "type": "string"
        },
        {
          "internalType": "string",
          "name": "_email",
          "type": "string"
        },
        {
          "internalType": "uint256",
          "name": "_phone",
          "type": "uint256"
        },
        {
          "internalType": "string",
          "name": "_additionalDetails",
          "type": "string"
        }
      ],
      "name": "keyHashtoUserHashMapping",
      "outputs": [],
      "payable": false,
      "stateMutability": "nonpayable",
      "type": "function"
    },
    {
      "constant": false,
      "inputs": [
        {
          "internalType": "string",
          "name": "_name",
          "type": "string"
        },
        {
          "internalType": "string",
          "name": "_email",
          "type": "string"
        },
        {
          "internalType": "uint256",
          "name": "_phone",
          "type": "uint256"
        },
        {
          "internalType": "string",
          "name": "_additionalDetails",
          "type": "string"
        }
      ],
      "name": "createUser",
      "outputs": [],
      "payable": false,
      "stateMutability": "nonpayable",
      "type": "function"
    }
  ],
  "bytecode": "0x6080604052600060025560006003556000600460006101000a81548160ff02191690831515021790555060405180602001604052806000815250600690805190602001906200005092919062000065565b503480156200005e57600080fd5b5062000114565b828054600181600116156101000203166002900490600052602060002090601f016020900481019282601f10620000a857805160ff1916838001178555620000d9565b82800160010185558215620000d9579182015b82811115620000d8578251825591602001919060010190620000bb565b5b509050620000e89190620000ec565b5090565b6200011191905b808211156200010d576000816000905550600101620000f3565b5090565b90565b61160380620001246000396000f3fe608060405234801561001057600080fd5b50600436106100a95760003560e01c806345874e381161007157806345874e38146103da57806374833b80146103fc578063925666991461047f578063a25f2c5b146105e5578063af2d1c9514610906578063d08145e414610a93576100a9565b806307973ccf146100ae5780630a2e3d49146100cc5780630d3b42f21461010e5780631f0c3f86146101c95780633ec01b50146101e7575b600080fd5b6100b6610ab1565b6040518082815260200191505060405180910390f35b6100f8600480360360208110156100e257600080fd5b8101908080359060200190929190505050610ab7565b6040518082815260200191505060405180910390f35b6101c76004803603602081101561012457600080fd5b810190808035906020019064010000000081111561014157600080fd5b82018360208201111561015357600080fd5b8035906020019184600183028401116401000000008311171561017557600080fd5b91908080601f016020809104026020016040519081016040528093929190818152602001838380828437600081840152601f19601f820116905080830192505050505050509192919290505050610acf565b005b6101d1610ae9565b6040518082815260200191505060405180910390f35b6103d8600480360360808110156101fd57600080fd5b810190808035906020019064010000000081111561021a57600080fd5b82018360208201111561022c57600080fd5b8035906020019184600183028401116401000000008311171561024e57600080fd5b91908080601f016020809104026020016040519081016040528093929190818152602001838380828437600081840152601f19601f820116905080830192505050505050509192919290803590602001906401000000008111156102b157600080fd5b8201836020820111156102c357600080fd5b803590602001918460018302840111640100000000831117156102e557600080fd5b91908080601f016020809104026020016040519081016040528093929190818152602001838380828437600081840152601f19601f820116905080830192505050505050509192919290803590602001909291908035906020019064010000000081111561035257600080fd5b82018360208201111561036457600080fd5b8035906020019184600183028401116401000000008311171561038657600080fd5b91908080601f016020809104026020016040519081016040528093929190818152602001838380828437600081840152601f19601f820116905080830192505050505050509192919290505050610aef565b005b6103e2610e57565b604051808215151515815260200191505060405180910390f35b610404610e6a565b6040518080602001828103825283818151815260200191508051906020019080838360005b83811015610444578082015181840152602081019050610429565b50505050905090810190601f1680156104715780820380516001836020036101000a031916815260200191505b509250505060405180910390f35b6105cf6004803603604081101561049557600080fd5b81019080803590602001906401000000008111156104b257600080fd5b8201836020820111156104c457600080fd5b803590602001918460018302840111640100000000831117156104e657600080fd5b91908080601f016020809104026020016040519081016040528093929190818152602001838380828437600081840152601f19601f8201169050808301925050505050505091929192908035906020019064010000000081111561054957600080fd5b82018360208201111561055b57600080fd5b8035906020019184600183028401116401000000008311171561057d57600080fd5b91908080601f016020809104026020016040519081016040528093929190818152602001838380828437600081840152601f19601f820116905080830192505050505050509192919290505050610f08565b6040518082815260200191505060405180910390f35b610904600480360360c08110156105fb57600080fd5b810190808035906020019064010000000081111561061857600080fd5b82018360208201111561062a57600080fd5b8035906020019184600183028401116401000000008311171561064c57600080fd5b91908080601f016020809104026020016040519081016040528093929190818152602001838380828437600081840152601f19601f820116905080830192505050505050509192919290803590602001906401000000008111156106af57600080fd5b8201836020820111156106c157600080fd5b803590602001918460018302840111640100000000831117156106e357600080fd5b91908080601f016020809104026020016040519081016040528093929190818152602001838380828437600081840152601f19601f8201169050808301925050505050505091929192908035906020019064010000000081111561074657600080fd5b82018360208201111561075857600080fd5b8035906020019184600183028401116401000000008311171561077a57600080fd5b91908080601f016020809104026020016040519081016040528093929190818152602001838380828437600081840152601f19601f820116905080830192505050505050509192919290803590602001906401000000008111156107dd57600080fd5b8201836020820111156107ef57600080fd5b8035906020019184600183028401116401000000008311171561081157600080fd5b91908080601f016020809104026020016040519081016040528093929190818152602001838380828437600081840152601f19601f820116905080830192505050505050509192919290803590602001909291908035906020019064010000000081111561087e57600080fd5b82018360208201111561089057600080fd5b803590602001918460018302840111640100000000831117156108b257600080fd5b91908080601f016020809104026020016040519081016040528093929190818152602001838380828437600081840152601f19601f820116905080830192505050505050509192919290505050610fd7565b005b6109326004803603602081101561091c57600080fd5b81019080803590602001909291905050506112a5565b60405180868152602001806020018060200185815260200180602001848103845288818151815260200191508051906020019080838360005b8381101561098657808201518184015260208101905061096b565b50505050905090810190601f1680156109b35780820380516001836020036101000a031916815260200191505b50848103835287818151815260200191508051906020019080838360005b838110156109ec5780820151818401526020810190506109d1565b50505050905090810190601f168015610a195780820380516001836020036101000a031916815260200191505b50848103825285818151815260200191508051906020019080838360005b83811015610a52578082015181840152602081019050610a37565b50505050905090810190601f168015610a7f5780820380516001836020036101000a031916815260200191505b509850505050505050505060405180910390f35b610a9b6114a3565b6040518082815260200191505060405180910390f35b60035481565b60016020528060005260406000206000915090505481565b8060069080519060200190610ae59291906114a9565b5050565b60025481565b6003600081548092919060010191905055506040518060a00160405280600354815260200185815260200184815260200183815260200182815250600080868686866040516020018085805190602001908083835b60208310610b675780518252602082019150602081019050602083039250610b44565b6001836020036101000a03801982511681845116808217855250505050505090500184805190602001908083835b60208310610bb85780518252602082019150602081019050602083039250610b95565b6001836020036101000a03801982511681845116808217855250505050505090500183815260200182805190602001908083835b60208310610c0f5780518252602082019150602081019050602083039250610bec565b6001836020036101000a038019825116818451168082178552505050505050905001945050505050604051602081830303815290604052805190602001208152602001908152602001600020600082015181600001556020820151816001019080519060200190610c81929190611529565b506040820151816002019080519060200190610c9e929190611529565b50606082015181600301556080820151816004019080519060200190610cc5929190611529565b509050507f6df621244ef957747e174cd30a5e2c068e6c7a4efe42b0f1e203d83fb5ba44a06003548585858560405180868152602001806020018060200185815260200180602001848103845288818151815260200191508051906020019080838360005b83811015610d45578082015181840152602081019050610d2a565b50505050905090810190601f168015610d725780820380516001836020036101000a031916815260200191505b50848103835287818151815260200191508051906020019080838360005b83811015610dab578082015181840152602081019050610d90565b50505050905090810190601f168015610dd85780820380516001836020036101000a031916815260200191505b50848103825285818151815260200191508051906020019080838360005b83811015610e11578082015181840152602081019050610df6565b50505050905090810190601f168015610e3e5780820380516001836020036101000a031916815260200191505b509850505050505050505060405180910390a150505050565b600460009054906101000a900460ff1681565b60068054600181600116156101000203166002900480601f016020809104026020016040519081016040528092919081815260200182805460018160011615610100020316600290048015610f005780601f10610ed557610100808354040283529160200191610f00565b820191906000526020600020905b815481529060010190602001808311610ee357829003601f168201915b505050505081565b600081836040516020018083805190602001908083835b60208310610f425780518252602082019150602081019050602083039250610f1f565b6001836020036101000a03801982511681845116808217855250505050505090500182805190602001908083835b60208310610f935780518252602082019150602081019050602083039250610f70565b6001836020036101000a0380198251168184511680821785525050505050509050019250505060405160208183030381529060405280519060200120905092915050565b85856040516020018083805190602001908083835b6020831061100f5780518252602082019150602081019050602083039250610fec565b6001836020036101000a03801982511681845116808217855250505050505090500182805190602001908083835b60208310611060578051825260208201915060208101905060208303925061103d565b6001836020036101000a0380198251168184511680821785525050505050509050019250505060405160208183030381529060405280519060200120600581905550838383836040516020018085805190602001908083835b602083106110dc57805182526020820191506020810190506020830392506110b9565b6001836020036101000a03801982511681845116808217855250505050505090500184805190602001908083835b6020831061112d578051825260208201915060208101905060208303925061110a565b6001836020036101000a03801982511681845116808217855250505050505090500183815260200182805190602001908083835b602083106111845780518252602082019150602081019050602083039250611161565b6001836020036101000a038019825116818451168082178552505050505050905001945050505050604051602081830303815290604052805190602001206001600088886040516020018083805190602001908083835b602083106111fe57805182526020820191506020810190506020830392506111db565b6001836020036101000a03801982511681845116808217855250505050505090500182805190602001908083835b6020831061124f578051825260208201915060208101905060208303925061122c565b6001836020036101000a0380198251168184511680821785525050505050509050019250505060405160208183030381529060405280519060200120815260200190815260200160002081905550505050505050565b6000602052806000526040600020600091509050806000015490806001018054600181600116156101000203166002900480601f0160208091040260200160405190810160405280929190818152602001828054600181600116156101000203166002900480156113575780601f1061132c57610100808354040283529160200191611357565b820191906000526020600020905b81548152906001019060200180831161133a57829003601f168201915b505050505090806002018054600181600116156101000203166002900480601f0160208091040260200160405190810160405280929190818152602001828054600181600116156101000203166002900480156113f55780601f106113ca576101008083540402835291602001916113f5565b820191906000526020600020905b8154815290600101906020018083116113d857829003601f168201915b505050505090806003015490806004018054600181600116156101000203166002900480601f0160208091040260200160405190810160405280929190818152602001828054600181600116156101000203166002900480156114995780601f1061146e57610100808354040283529160200191611499565b820191906000526020600020905b81548152906001019060200180831161147c57829003601f168201915b5050505050905085565b60055481565b828054600181600116156101000203166002900490600052602060002090601f016020900481019282601f106114ea57805160ff1916838001178555611518565b82800160010185558215611518579182015b828111156115175782518255916020019190600101906114fc565b5b50905061152591906115a9565b5090565b828054600181600116156101000203166002900490600052602060002090601f016020900481019282601f1061156a57805160ff1916838001178555611598565b82800160010185558215611598579182015b8281111561159757825182559160200191906001019061157c565b5b5090506115a591906115a9565b5090565b6115cb91905b808211156115c75760008160009055506001016115af565b5090565b9056fea265627a7a72315820b64722e9952f849ad37bf771853c2d4be02c684fc029de464f01a058b628d2f664736f6c63430005100032",
  "source": "pragma solidity >=0.4.21 <0.7.0;\r\n\r\n\r\n\r\ncontract AllTransactions {\r\n  \r\n \r\n\r\nstruct User {\r\n\tuint id;\r\n\tstring name;\r\n\tstring email;\r\n\tuint phone;\r\n\tstring additionalDetails;\r\n}\r\n\r\nevent userCreated (\r\n\tuint userCount,\r\n\tstring _name,\r\n\tstring _email,\r\n\tuint _phone,\r\n\tstring _additionalDetails);\r\n\r\n\r\n\r\n\r\n// User public user;\r\n\r\nmapping (bytes32 => User) public userList;\r\n\r\nmapping (bytes32 => bytes32) public keyHashtoUserHash;\r\n\r\n  \r\n\r\n  constructor() public {\r\n\r\n  }\r\n\r\n uint public universalCounter=0;\r\n  uint public userCount=0;\r\n  bool public latLOG= false;\r\n  bytes32 public lastLog;\r\n  string public asSt='';\r\n\r\n\r\n\r\nfunction asS (string memory _data) public {\r\n\t\r\n\tasSt = _data;\r\n\r\n}\r\n\r\n\r\nfunction setLastLog (string memory _pvtKey, string memory _address)public pure \r\n returns(bytes32) {\r\n\t\treturn keccak256(abi.encodePacked(_address,_pvtKey));\r\n}\r\n\r\n\r\nfunction keyHashtoUserHashMapping (string memory _address, string memory _pvtKey,string memory _name, string memory _email, \r\n  \tuint _phone, string memory _additionalDetails) public {\r\n\t\r\n\t// asSt = _LH;\r\n\tlastLog = keccak256(abi.encodePacked(_address,_pvtKey));\r\n\tkeyHashtoUserHash[keccak256(abi.encodePacked(_address,_pvtKey))]= \r\n\tkeccak256(abi.encodePacked(_name, _email,_phone, _additionalDetails));\r\n}\r\n\r\n\r\n\r\n  function createUser (string memory _name, string memory _email, \r\n  \tuint _phone, string memory _additionalDetails) \r\n\r\n  public {\r\n\t\tuserCount++;\r\n\t\tuserList[keccak256(abi.encodePacked(_name, _email,_phone, _additionalDetails))] = \r\n\t\tUser(userCount,_name,_email,_phone, _additionalDetails);\r\n\t\temit userCreated (userCount,_name,_email,_phone,_additionalDetails);\r\n\r\n }\r\n\r\n\r\n  \r\n\r\n}\r\n",
  "sourcePath": "S:\\BACKEND\\contracts\\AllTransactions.sol",
  "compiler": {
    "name": "solc",
    "version": "0.5.16+commit.9c3226ce.Emscripten.clang"
  },
  "schemaVersion": "3.0.23",
  "updatedAt": "2020-05-22T15:43:50.836Z",
  "networkType": "ethereum",
  "devdoc": {
    "methods": {}
  },
  "userdoc": {
    "methods": {}
  }
}